:1000000002308A00992A00008E30F7002A08F80092
:100010002908F900FA01F808031D18287908F800E2
:10002000F9010830F702F808031D1828F701202805
:100030000310F81B1F28F90DF80DF7031828F81303
:100040008A110A12D52A360803199328BE003A08E5
:1000500003199328BE07031834287F30BE02031CFF
:1000600093280319932838288130BE070318932852
:100070003E08F700F801F901FA013708C200C2177B
:100080003808C1003908C0001830BE00BF01401C4C
:1000900061283D08FA07031C5328F90A031D532859
:1000A000F80A0319BF173C08F907031C5A28F80A75
:1000B0000319BF173B08B800B8173808F80703182A
:1000C000BF17BF0DF80CF90CFA0CC20CC10CC00C18
:1000D0000310BE0B46280130F70703189328F81BBE
:1000E0007828C20DFA0DF90DF80DF70303199328BE
:1000F000C21F8928FA0A031D8928F90A031D8928C5
:10010000F80A031D8928F80CF90CFA0CF70A0319F0
:1001100093283708BF003B08BF06BF1F9128F81778
:100120009728F8139728F701F801F901FA01080058
:100130002D0803195D29B900310803195D29B90299
:10014000031CA7287F30B90703185D29AD2881302B
:10015000B902031C5D2903195D293908F700F8016C
:10016000F901FA01B8012E08B700B7172F08B60039
:100170003008B5001930B9003408B5020318D0288A
:100180000130B6020318D028B7020318D028B802ED
:100190000318D028B80AB70AB60A3408B5070229E6
:1001A0003308B6020318EB280130B7020318EB2816
:1001B000B8020318EB28B80AB70A3308B6073408A0
:1001C000B507031C0229B60A031D0229B70A031D3D
:1001D0000229B80A022932088038B7020318012917
:1001E0000130B80203180129B80A32088038B7076D
:1001F0003308B607031CDF28B70A031DDF28B80A37
:10020000DF287A14B90B052910290310B50DB60D96
:10021000B70DB80D0310FA0DF90DF80DBA0DBC2885
:100220003A1C18290310F80CF90CFA0CBA0C1B290B
:10023000F70303195D29BA1B44290310B50DB60D48
:10024000B70DB80D3408B502031830290130B602D5
:1002500003183029B70203183029B802031C5329A8
:100260003308B60203183B290130B70203183B29B3
:10027000B802031C532932088038B70203184429F6
:100280000130B802031C5329FA0A031D5329F90A45
:10029000031D5329F80A031D5329F70A03195D2981
:1002A000F80CF90CFA0C2E08B9003208B906B91F7F
:1002B0005B29F8176129F8136129F701F801F901A1
:1002C000FA018A110A12FC2A831869293E30840037
:1002D0008313F701F801F901FA01BE01BF01C00162
:1002E000C1013D083C043B043A040319A72920300E
:1002F000C2000310B60DB70DB80DB90DBE0DBF0D80
:10030000C00DC10D3D084102031D90293C0840026B
:10031000031D90293B083F02031D90293A083E0225
:10032000031CA1293A08BE023B08031C3B0FBF0275
:100330003C08031C3C0FC0023D08031C3D0FC102DA
:100340000314F70DF80DF90DFA0DC20B79293E08CB
:100350008000840A3F088000840A40088000840AE4
:100360004108800008000408AE002D08B000031901
:10037000D2292C08B9002B08B8002A08B700290890
:10038000B600BD01BC012030BB008230BA00232082
:100390007A08AC007908AB007808AA007708A900B1
:1003A000B00BB9292C08B9002B08B8002A08B700EF
:1003B0002908B6003608B63CB600FA013708BA007C
:1003C000B7170310B70CB80CB90CFA0CF90CF80CF1
:1003D000F70CB60BE129BA1FF829F709F809F90952
:1003E000FA09F70A0319F80A0319F90A0319FA0AAC
:1003F0007A08AC007908AB007808AA007708A90051
:10040000AC1F0F2AAE03AE16A909AA09AB09AC09A5
:10041000A90A0319AA0A0319AB0A0319AC0A3B304B
:10042000B5009A30B400CA30B300B2010A30B0004F
:100430002D080319AE0A83142930840083132C0875
:10044000B9002B08B8002A08B7002908B6003508FB
:10045000BD003408BC003308BB003208BA00642178
:100460007808F708031D472A2D0A30020319472A86
:100470002E080319492A0F3930020319412A03189B
:100480007D2AAE1B7D2A2E1B492A2030782A203057
:10049000AE05AE1E582AAE122D08031DAE03770816
:1004A000AE002D300C1E522A99002E08F700AE0126
:1004B0002D083002031D672A7708AE002E300C1E6F
:1004C0005F2A99002E08F7002030AE05003030304A
:1004D000AE1E782AAE122D08031DAE037708AE00BB
:1004E0002D300C1E712A99002E08F700AE01303015
:1004F000F70777080C1E7A2A990083103508B9008F
:100500003408B8003308B7003208B600BD01BC019A
:10051000BB010A30BA0064217A08B5007908B4003A
:100520007808B3007708B200B00B1B2A8A110A12B0
:10053000152B03081F398300193083169900A63044
:10054000980090308312980083161F149F141F1573
:100550009F1107309C0083138312A001A101831611
:100560001F109F101F119F111F1383121F179F171A
:1005700083169F1783121F140030F8001F08C73915
:1005800078049F004230F700F70BC42A00001F15C3
:100590001F19C82A83161E088312A2001E08A30072
:1005A0002308AA002208A90004287A08B9007908BB
:1005B000B8007808B7007708B600BD01BC0120304C
:1005C000BB008130BA0023207A08AC007908AB0068
:1005D0007808AA007708A9007A08B0007908AF0067
:1005E0007808AE007708AD00B401C030B3007F30AA
:1005F000B2008830B10098287A08A7007908A600D0
:100600007808A5007708A4000D300C1E052B990072
:10061000C93084002708AC002608AB002508AA00D2
:100620002408A9000230AD00B3290D300C1E162B92
:1006300099000A300C1E1A2B99001F2BBC2A63004C
:02400E00713F00
:00000001FF
;PIC16F877A
;CRC=ACCE  CREATED="13-jun.-23 01:28"
